:020000003A289C
:10000800FF00030E8301A6000A08A5008A018B1CC5
:100018000F288B10A00A25088A00260E8300FF0EE1
:040028007F0E09003E
:0E002C008312031322088A00210882000800B4
:10003A0016208A110A128000840AA10A0319A20A48
:08004A00F003031D1D2808004E
:1000520083120313F8010830FC00700DF80D7408C8
:10006200F80203183628F8070310F00DFC0B2E28AF
:02007200080084
:1000740083120313A0018B178B140B1607308316FE
:100084009F00183085008901090888000808870046
:1000940001308600FF30831286008901051105199D
:1000A400552885105628851485185A2805105B286C
:1000B4000514051EF72888010808870086010F30FB
:1000C400A4002408003C0318AA28051A6A28AA28B0
:1000D4000A30F4002408F0002920700888000A304F
:1000E400F4002408F00029207808F0007008870044
:1000F4002408033C031894280515051983280910BE
:100104008428091485108518892889108A28891457
:1001140089188E2809118F280915091993280510A3
:10012400942805142408033C031C9A2805118514FB
:100134000630FB001330FC00AD30FD00FD0BA028A1
:10014400FC0BA028FB0BA02800000000A4036328DC
:100154008801080887001730A4002408003C03180D
:10016400F628051AB628F6280A30F4002408F00008
:100174002920700888000A30F4002408F00029209F
:100184007808F000700887002408033C0318E0286E
:1001940089108918CF288510D02885148518D4286B
:1001A4000511D52805150519D9280910DA280914C7
:1001B40009150919DF280510E02805142408033C53
:1001C400031CE628091189140630FB001330FC00D7
:1001D400AD30FD00FD0BEC28FC0BEC28FB0BEC28F0
:1001E40000000000A403AF285B28051A9E2905110E
:1001F4000519FE280911FF280915091903290510F5
:100204000429051405180829091009290914851059
:1002140085180E2989100F2989140616061A14291F
:100224008611152986158619192906111A29061504
:1002340006191E2986101F2986142008013A031D59
:100244003729091509192829051029290514063003
:10025400FB001330FC00AD30FD00FD0B2F29FC0B1F
:100264002F29FB0B2F29000000002008023A031D50
:100274005F290330A30000302302031C5F292308F5
:10028400003A031D4A290330A3000330A0005F296C
:10029400091189148610230887000630FB001330E7
:1002A400FC00AD30FD00FD0B5529FC0B5529FB0B63
:1002B400552900000000A3033D292008033A031D2B
:1002C400752905100914051589100630FB00133033
:1002D400FC00AD30FD00FD0B6D29FC0B6D29FB0B03
:1002E4006D29000000002008043A031D9D290330F5
:1002F400A3002308003C03189D292308003A031D8A
:1003040086290330A3009D2905118514861123082D
:1003140087000630FB001330FC00AD30FD00FD0B00
:100324009129FC0B9129FB0B91290000000001305D
:0C033400A000A3037B29F7285B289F2969
:02400E004A2F37
:00000001FF
